{
  "_format": "hh-sol-artifact-1",
  "contractName": "RandomizedCollection",
  "sourceName": "contracts/tokens/RandomizedCollection.sol",
  "abi": [
    {
      "inputs": [
        {
          "internalType": "uint256",
          "name": "_maxTokens",
          "type": "uint256"
        },
        {
          "internalType": "uint256",
          "name": "_price",
          "type": "uint256"
        },
        {
          "internalType": "string",
          "name": "_name",
          "type": "string"
        },
        {
          "internalType": "string",
          "name": "_symbol",
          "type": "string"
        },
        {
          "internalType": "address",
          "name": "_owner",
          "type": "address"
        },
        {
          "internalType": "address",
          "name": "_randomContract",
          "type": "address"
        }
      ],
      "stateMutability": "nonpayable",
      "type": "constructor"
    },
    {
      "anonymous": false,
      "inputs": [
        {
          "indexed": true,
          "internalType": "address",
          "name": "owner",
          "type": "address"
        },
        {
          "indexed": true,
          "internalType": "address",
          "name": "approved",
          "type": "address"
        },
        {
          "indexed": true,
          "internalType": "uint256",
          "name": "tokenId",
          "type": "uint256"
        }
      ],
      "name": "Approval",
      "type": "event"
    },
    {
      "anonymous": false,
      "inputs": [
        {
          "indexed": true,
          "internalType": "address",
          "name": "owner",
          "type": "address"
        },
        {
          "indexed": true,
          "internalType": "address",
          "name": "operator",
          "type": "address"
        },
        {
          "indexed": false,
          "internalType": "bool",
          "name": "approved",
          "type": "bool"
        }
      ],
      "name": "ApprovalForAll",
      "type": "event"
    },
    {
      "anonymous": false,
      "inputs": [
        {
          "indexed": true,
          "internalType": "uint256",
          "name": "tokenId",
          "type": "uint256"
        },
        {
          "indexed": true,
          "internalType": "address",
          "name": "owner",
          "type": "address"
        }
      ],
      "name": "Minted",
      "type": "event"
    },
    {
      "anonymous": false,
      "inputs": [
        {
          "indexed": true,
          "internalType": "bytes32",
          "name": "role",
          "type": "bytes32"
        },
        {
          "indexed": true,
          "internalType": "bytes32",
          "name": "previousAdminRole",
          "type": "bytes32"
        },
        {
          "indexed": true,
          "internalType": "bytes32",
          "name": "newAdminRole",
          "type": "bytes32"
        }
      ],
      "name": "RoleAdminChanged",
      "type": "event"
    },
    {
      "anonymous": false,
      "inputs": [
        {
          "indexed": true,
          "internalType": "bytes32",
          "name": "role",
          "type": "bytes32"
        },
        {
          "indexed": true,
          "internalType": "address",
          "name": "account",
          "type": "address"
        },
        {
          "indexed": true,
          "internalType": "address",
          "name": "sender",
          "type": "address"
        }
      ],
      "name": "RoleGranted",
      "type": "event"
    },
    {
      "anonymous": false,
      "inputs": [
        {
          "indexed": true,
          "internalType": "bytes32",
          "name": "role",
          "type": "bytes32"
        },
        {
          "indexed": true,
          "internalType": "address",
          "name": "account",
          "type": "address"
        },
        {
          "indexed": true,
          "internalType": "address",
          "name": "sender",
          "type": "address"
        }
      ],
      "name": "RoleRevoked",
      "type": "event"
    },
    {
      "anonymous": false,
      "inputs": [
        {
          "indexed": true,
          "internalType": "address",
          "name": "from",
          "type": "address"
        },
        {
          "indexed": true,
          "internalType": "address",
          "name": "to",
          "type": "address"
        },
        {
          "indexed": true,
          "internalType": "uint256",
          "name": "tokenId",
          "type": "uint256"
        }
      ],
      "name": "Transfer",
      "type": "event"
    },
    {
      "inputs": [],
      "name": "DEFAULT_ADMIN_ROLE",
      "outputs": [
        {
          "internalType": "bytes32",
          "name": "",
          "type": "bytes32"
        }
      ],
      "stateMutability": "view",
      "type": "function"
    },
    {
      "inputs": [],
      "name": "MINTER_ROLE",
      "outputs": [
        {
          "internalType": "bytes32",
          "name": "",
          "type": "bytes32"
        }
      ],
      "stateMutability": "view",
      "type": "function"
    },
    {
      "inputs": [
        {
          "internalType": "address",
          "name": "to",
          "type": "address"
        },
        {
          "internalType": "uint256",
          "name": "tokenId",
          "type": "uint256"
        }
      ],
      "name": "approve",
      "outputs": [],
      "stateMutability": "nonpayable",
      "type": "function"
    },
    {
      "inputs": [
        {
          "internalType": "address",
          "name": "owner",
          "type": "address"
        }
      ],
      "name": "balanceOf",
      "outputs": [
        {
          "internalType": "uint256",
          "name": "",
          "type": "uint256"
        }
      ],
      "stateMutability": "view",
      "type": "function"
    },
    {
      "inputs": [
        {
          "internalType": "string[]",
          "name": "_uri",
          "type": "string[]"
        }
      ],
      "name": "batchMint",
      "outputs": [],
      "stateMutability": "payable",
      "type": "function"
    },
    {
      "inputs": [
        {
          "internalType": "uint256",
          "name": "tokenId",
          "type": "uint256"
        }
      ],
      "name": "getApproved",
      "outputs": [
        {
          "internalType": "address",
          "name": "",
          "type": "address"
        }
      ],
      "stateMutability": "view",
      "type": "function"
    },
    {
      "inputs": [
        {
          "internalType": "bytes32",
          "name": "role",
          "type": "bytes32"
        }
      ],
      "name": "getRoleAdmin",
      "outputs": [
        {
          "internalType": "bytes32",
          "name": "",
          "type": "bytes32"
        }
      ],
      "stateMutability": "view",
      "type": "function"
    },
    {
      "inputs": [
        {
          "internalType": "bytes32",
          "name": "role",
          "type": "bytes32"
        },
        {
          "internalType": "address",
          "name": "account",
          "type": "address"
        }
      ],
      "name": "grantRole",
      "outputs": [],
      "stateMutability": "nonpayable",
      "type": "function"
    },
    {
      "inputs": [
        {
          "internalType": "bytes32",
          "name": "role",
          "type": "bytes32"
        },
        {
          "internalType": "address",
          "name": "account",
          "type": "address"
        }
      ],
      "name": "hasRole",
      "outputs": [
        {
          "internalType": "bool",
          "name": "",
          "type": "bool"
        }
      ],
      "stateMutability": "view",
      "type": "function"
    },
    {
      "inputs": [
        {
          "internalType": "address",
          "name": "owner",
          "type": "address"
        },
        {
          "internalType": "address",
          "name": "operator",
          "type": "address"
        }
      ],
      "name": "isApprovedForAll",
      "outputs": [
        {
          "internalType": "bool",
          "name": "",
          "type": "bool"
        }
      ],
      "stateMutability": "view",
      "type": "function"
    },
    {
      "inputs": [],
      "name": "maxTokens",
      "outputs": [
        {
          "internalType": "uint256",
          "name": "",
          "type": "uint256"
        }
      ],
      "stateMutability": "view",
      "type": "function"
    },
    {
      "inputs": [
        {
          "internalType": "string",
          "name": "_uri",
          "type": "string"
        }
      ],
      "name": "mint",
      "outputs": [],
      "stateMutability": "payable",
      "type": "function"
    },
    {
      "inputs": [],
      "name": "name",
      "outputs": [
        {
          "internalType": "string",
          "name": "",
          "type": "string"
        }
      ],
      "stateMutability": "view",
      "type": "function"
    },
    {
      "inputs": [
        {
          "internalType": "uint256",
          "name": "tokenId",
          "type": "uint256"
        }
      ],
      "name": "ownerOf",
      "outputs": [
        {
          "internalType": "address",
          "name": "",
          "type": "address"
        }
      ],
      "stateMutability": "view",
      "type": "function"
    },
    {
      "inputs": [
        {
          "internalType": "bytes32",
          "name": "role",
          "type": "bytes32"
        },
        {
          "internalType": "address",
          "name": "account",
          "type": "address"
        }
      ],
      "name": "renounceRole",
      "outputs": [],
      "stateMutability": "nonpayable",
      "type": "function"
    },
    {
      "inputs": [
        {
          "internalType": "bytes32",
          "name": "role",
          "type": "bytes32"
        },
        {
          "internalType": "address",
          "name": "account",
          "type": "address"
        }
      ],
      "name": "revokeRole",
      "outputs": [],
      "stateMutability": "nonpayable",
      "type": "function"
    },
    {
      "inputs": [
        {
          "internalType": "address",
          "name": "from",
          "type": "address"
        },
        {
          "internalType": "address",
          "name": "to",
          "type": "address"
        },
        {
          "internalType": "uint256",
          "name": "tokenId",
          "type": "uint256"
        }
      ],
      "name": "safeTransferFrom",
      "outputs": [],
      "stateMutability": "nonpayable",
      "type": "function"
    },
    {
      "inputs": [
        {
          "internalType": "address",
          "name": "from",
          "type": "address"
        },
        {
          "internalType": "address",
          "name": "to",
          "type": "address"
        },
        {
          "internalType": "uint256",
          "name": "tokenId",
          "type": "uint256"
        },
        {
          "internalType": "bytes",
          "name": "_data",
          "type": "bytes"
        }
      ],
      "name": "safeTransferFrom",
      "outputs": [],
      "stateMutability": "nonpayable",
      "type": "function"
    },
    {
      "inputs": [
        {
          "internalType": "address",
          "name": "operator",
          "type": "address"
        },
        {
          "internalType": "bool",
          "name": "approved",
          "type": "bool"
        }
      ],
      "name": "setApprovalForAll",
      "outputs": [],
      "stateMutability": "nonpayable",
      "type": "function"
    },
    {
      "inputs": [
        {
          "internalType": "bytes4",
          "name": "_interfaceId",
          "type": "bytes4"
        }
      ],
      "name": "supportsInterface",
      "outputs": [
        {
          "internalType": "bool",
          "name": "",
          "type": "bool"
        }
      ],
      "stateMutability": "view",
      "type": "function"
    },
    {
      "inputs": [],
      "name": "symbol",
      "outputs": [
        {
          "internalType": "string",
          "name": "",
          "type": "string"
        }
      ],
      "stateMutability": "view",
      "type": "function"
    },
    {
      "inputs": [
        {
          "internalType": "uint256",
          "name": "index",
          "type": "uint256"
        }
      ],
      "name": "tokenByIndex",
      "outputs": [
        {
          "internalType": "uint256",
          "name": "",
          "type": "uint256"
        }
      ],
      "stateMutability": "view",
      "type": "function"
    },
    {
      "inputs": [
        {
          "internalType": "address",
          "name": "owner",
          "type": "address"
        },
        {
          "internalType": "uint256",
          "name": "index",
          "type": "uint256"
        }
      ],
      "name": "tokenOfOwnerByIndex",
      "outputs": [
        {
          "internalType": "uint256",
          "name": "",
          "type": "uint256"
        }
      ],
      "stateMutability": "view",
      "type": "function"
    },
    {
      "inputs": [
        {
          "internalType": "uint256",
          "name": "_tokenId",
          "type": "uint256"
        }
      ],
      "name": "tokenURI",
      "outputs": [
        {
          "internalType": "string",
          "name": "",
          "type": "string"
        }
      ],
      "stateMutability": "view",
      "type": "function"
    },
    {
      "inputs": [
        {
          "internalType": "uint256",
          "name": "",
          "type": "uint256"
        }
      ],
      "name": "tokens",
      "outputs": [
        {
          "internalType": "uint256",
          "name": "",
          "type": "uint256"
        }
      ],
      "stateMutability": "view",
      "type": "function"
    },
    {
      "inputs": [],
      "name": "tokensCount",
      "outputs": [
        {
          "internalType": "uint256",
          "name": "",
          "type": "uint256"
        }
      ],
      "stateMutability": "view",
      "type": "function"
    },
    {
      "inputs": [],
      "name": "totalSupply",
      "outputs": [
        {
          "internalType": "uint256",
          "name": "",
          "type": "uint256"
        }
      ],
      "stateMutability": "view",
      "type": "function"
    },
    {
      "inputs": [
        {
          "internalType": "address",
          "name": "from",
          "type": "address"
        },
        {
          "internalType": "address",
          "name": "to",
          "type": "address"
        },
        {
          "internalType": "uint256",
          "name": "tokenId",
          "type": "uint256"
        }
      ],
      "name": "transferFrom",
      "outputs": [],
      "stateMutability": "nonpayable",
      "type": "function"
    },
    {
      "inputs": [
        {
          "internalType": "uint256",
          "name": "",
          "type": "uint256"
        }
      ],
      "name": "uri",
      "outputs": [
        {
          "internalType": "string",
          "name": "",
          "type": "string"
        }
      ],
      "stateMutability": "view",
      "type": "function"
    },
    {
      "inputs": [],
      "name": "withdraw",
      "outputs": [],
      "stateMutability": "nonpayable",
      "type": "function"
    }
  ],
  "bytecode": "0x60806040523480156200001157600080fd5b5060405162002d4938038062002d498339810160408190526200003491620003e5565b8351849084906200004d90600190602085019062000232565b5080516200006390600290602084019062000232565b5050506001600160a01b0381166200007a57600080fd5b600e869055600d859055600c80546001600160a01b0319166001600160a01b03841617905585156200011857600e546001600160401b03811115620000cf57634e487b7160e01b600052604160045260246000fd5b604051908082528060200260200182016040528015620000f9578160200160208202803683370190505b5080516200011091601191602090910190620002c1565b50600e54600f555b601380546001600160a01b0319166001600160a01b0383161790556200014060008362000182565b6200015b60008051602062002d298339815191528362000182565b6200017660008051602062002d298339815191523362000182565b505050505050620004d7565b6200018e828262000192565b5050565b6000828152602081815260408083206001600160a01b038516845290915290205460ff166200018e576000828152602081815260408083206001600160a01b03851684529091529020805460ff19166001179055620001ee3390565b6001600160a01b0316816001600160a01b0316837f2f8788117e7eff1d82e926ec794901d17c78024a50270940304540a733656f0d60405160405180910390a45050565b828054620002409062000484565b90600052602060002090601f016020900481019282620002645760008555620002af565b82601f106200027f57805160ff1916838001178555620002af565b82800160010185558215620002af579182015b82811115620002af57825182559160200191906001019062000292565b50620002bd929150620002fe565b5090565b828054828255906000526020600020908101928215620002af5791602002820182811115620002af57825182559160200191906001019062000292565b5b80821115620002bd5760008155600101620002ff565b80516001600160a01b03811681146200032d57600080fd5b919050565b600082601f83011262000343578081fd5b81516001600160401b0380821115620003605762000360620004c1565b604051601f8301601f19908116603f011681019082821181831017156200038b576200038b620004c1565b81604052838152602092508683858801011115620003a7578485fd5b8491505b83821015620003ca5785820183015181830184015290820190620003ab565b83821115620003db57848385830101525b9695505050505050565b60008060008060008060c08789031215620003fe578182fd5b86516020880151604089015191975095506001600160401b038082111562000424578384fd5b620004328a838b0162000332565b9550606089015191508082111562000448578384fd5b506200045789828a0162000332565b935050620004686080880162000315565b91506200047860a0880162000315565b90509295509295509295565b600181811c908216806200049957607f821691505b60208210811415620004bb57634e487b7160e01b600052602260045260246000fd5b50919050565b634e487b7160e01b600052604160045260246000fd5b61284280620004e76000396000f3fe6080604052600436106101cd5760003560e01c80635bcdf207116100f7578063a64ed8ba11610095578063d547741f11610064578063d547741f1461052e578063d85d3d271461054e578063e831574214610561578063e985e9c51461057757600080fd5b8063a64ed8ba146104a4578063b88d4fde146104ba578063c87b56dd146104da578063d5391393146104fa57600080fd5b806391d14854116100d157806391d148541461043a57806395d89b411461045a578063a217fddf1461046f578063a22cb4651461048457600080fd5b80635bcdf207146103e75780636352211e146103fa57806370a082311461041a57600080fd5b8063248a9ca31161016f5780633ccfd60b1161013e5780633ccfd60b1461037257806342842e0e146103875780634f64b2be146103a75780634f6ccce7146103c757600080fd5b8063248a9ca3146102e25780632f2ff15d146103125780632f745c591461033257806336568abe1461035257600080fd5b8063095ea7b3116101ab578063095ea7b3146102615780630e89341c1461028357806318160ddd146102a357806323b872dd146102c257600080fd5b806301ffc9a7146101d257806306fdde0314610207578063081812fc14610229575b600080fd5b3480156101de57600080fd5b506101f26101ed36600461247b565b6105c0565b60405190151581526020015b60405180910390f35b34801561021357600080fd5b5061021c6105d1565b6040516101fe91906125dc565b34801561023557600080fd5b50610249610244366004612441565b610663565b6040516001600160a01b0390911681526020016101fe565b34801561026d57600080fd5b5061028161027c366004612356565b6106fd565b005b34801561028f57600080fd5b5061021c61029e366004612441565b610813565b3480156102af57600080fd5b506009545b6040519081526020016101fe565b3480156102ce57600080fd5b506102816102dd366004612268565b6108ad565b3480156102ee57600080fd5b506102b46102fd366004612441565b60009081526020819052604090206001015490565b34801561031e57600080fd5b5061028161032d366004612459565b6108de565b34801561033e57600080fd5b506102b461034d366004612356565b610904565b34801561035e57600080fd5b5061028161036d366004612459565b61099a565b34801561037e57600080fd5b50610281610a18565b34801561039357600080fd5b506102816103a2366004612268565b610ab2565b3480156103b357600080fd5b506102b46103c2366004612441565b610acd565b3480156103d357600080fd5b506102b46103e2366004612441565b610aee565b6102816103f536600461237f565b610b8f565b34801561040657600080fd5b50610249610415366004612441565b610c7e565b34801561042657600080fd5b506102b461043536600461221c565b610cf5565b34801561044657600080fd5b506101f2610455366004612459565b610d7c565b34801561046657600080fd5b5061021c610da5565b34801561047b57600080fd5b506102b4600081565b34801561049057600080fd5b5061028161049f36600461231c565b610db4565b3480156104b057600080fd5b506102b460105481565b3480156104c657600080fd5b506102816104d53660046122a3565b610dbf565b3480156104e657600080fd5b5061021c6104f5366004612441565b610df7565b34801561050657600080fd5b506102b47f9f2df0fed2c77648de5860a4cc508cd0818c85b8b8a1ab4ceeef8d981c8956a681565b34801561053a57600080fd5b50610281610549366004612459565b610e99565b61028161055c3660046124b3565b610ebf565b34801561056d57600080fd5b506102b4600e5481565b34801561058357600080fd5b506101f2610592366004612236565b6001600160a01b03918216600090815260066020908152604080832093909416825291909152205460ff1690565b60006105cb82610f0b565b92915050565b6060600180546105e090612754565b80601f016020809104026020016040519081016040528092919081815260200182805461060c90612754565b80156106595780601f1061062e57610100808354040283529160200191610659565b820191906000526020600020905b81548152906001019060200180831161063c57829003601f168201915b5050505050905090565b6000818152600360205260408120546001600160a01b03166106e15760405162461bcd60e51b815260206004820152602c60248201527f4552433732313a20617070726f76656420717565727920666f72206e6f6e657860448201526b34b9ba32b73a103a37b5b2b760a11b60648201526084015b60405180910390fd5b506000908152600560205260409020546001600160a01b031690565b600061070882610c7e565b9050806001600160a01b0316836001600160a01b031614156107765760405162461bcd60e51b815260206004820152602160248201527f4552433732313a20617070726f76616c20746f2063757272656e74206f776e656044820152603960f91b60648201526084016106d8565b336001600160a01b038216148061079257506107928133610592565b6108045760405162461bcd60e51b815260206004820152603860248201527f4552433732313a20617070726f76652063616c6c6572206973206e6f74206f7760448201527f6e6572206e6f7220617070726f76656420666f7220616c6c000000000000000060648201526084016106d8565b61080e8383610f30565b505050565b600b602052600090815260409020805461082c90612754565b80601f016020809104026020016040519081016040528092919081815260200182805461085890612754565b80156108a55780601f1061087a576101008083540402835291602001916108a5565b820191906000526020600020905b81548152906001019060200180831161088857829003601f168201915b505050505081565b6108b73382610f9e565b6108d35760405162461bcd60e51b81526004016106d890612641565b61080e838383611095565b6000828152602081905260409020600101546108fa813361123c565b61080e83836112a0565b600061090f83610cf5565b82106109715760405162461bcd60e51b815260206004820152602b60248201527f455243373231456e756d657261626c653a206f776e657220696e646578206f7560448201526a74206f6620626f756e647360a81b60648201526084016106d8565b506001600160a01b03919091166000908152600760209081526040808320938352929052205490565b6001600160a01b0381163314610a0a5760405162461bcd60e51b815260206004820152602f60248201527f416363657373436f6e74726f6c3a2063616e206f6e6c792072656e6f756e636560448201526e103937b632b9903337b91039b2b63360891b60648201526084016106d8565b610a148282611324565b5050565b600c546040516000916001600160a01b03169047908381818185875af1925050503d8060008114610a65576040519150601f19603f3d011682016040523d82523d6000602084013e610a6a565b606091505b5050905080610aaf5760405162461bcd60e51b815260206004820152601160248201527015da5d1a191c985dd85b0811985a5b1959607a1b60448201526064016106d8565b50565b61080e83838360405180602001604052806000815250610dbf565b60118181548110610add57600080fd5b600091825260209091200154905081565b6000610af960095490565b8210610b5c5760405162461bcd60e51b815260206004820152602c60248201527f455243373231456e756d657261626c653a20676c6f62616c20696e646578206f60448201526b7574206f6620626f756e647360a01b60648201526084016106d8565b60098281548110610b7d57634e487b7160e01b600052603260045260246000fd5b90600052602060002001549050919050565b601481511115610be15760405162461bcd60e51b815260206004820152601a60248201527f4e6f74206d6f7265207468616e20323020617420612074696d6500000000000060448201526064016106d8565b34600d548251610bf191906126db565b1015610c2f5760405162461bcd60e51b815260206004820152600d60248201526c507269636520746f6f206c6f7760981b60448201526064016106d8565b60005b8151811015610a1457610c6c33838381518110610c5f57634e487b7160e01b600052603260045260246000fd5b6020026020010151611389565b80610c768161278f565b915050610c32565b6000818152600360205260408120546001600160a01b0316806105cb5760405162461bcd60e51b815260206004820152602960248201527f4552433732313a206f776e657220717565727920666f72206e6f6e657869737460448201526832b73a103a37b5b2b760b91b60648201526084016106d8565b60006001600160a01b038216610d605760405162461bcd60e51b815260206004820152602a60248201527f4552433732313a2062616c616e636520717565727920666f7220746865207a65604482015269726f206164647265737360b01b60648201526084016106d8565b506001600160a01b031660009081526004602052604090205490565b6000918252602082815260408084206001600160a01b0393909316845291905290205460ff1690565b6060600280546105e090612754565b610a14338383611590565b610dc93383610f9e565b610de55760405162461bcd60e51b81526004016106d890612641565b610df18484848461165f565b50505050565b6000818152600b60205260409020805460609190610e1490612754565b80601f0160208091040260200160405190810160405280929190818152602001828054610e4090612754565b8015610e8d5780601f10610e6257610100808354040283529160200191610e8d565b820191906000526020600020905b815481529060010190602001808311610e7057829003601f168201915b50505050509050919050565b600082815260208190526040902060010154610eb5813361123c565b61080e8383611324565b600d54341015610f015760405162461bcd60e51b815260206004820152600d60248201526c507269636520746f6f206c6f7760981b60448201526064016106d8565b610aaf3382611389565b60006001600160e01b0319821663780e9d6360e01b14806105cb57506105cb82611692565b600081815260056020526040902080546001600160a01b0319166001600160a01b0384169081179091558190610f6582610c7e565b6001600160a01b03167f8c5be1e5ebec7d5bd14f71427d1e84f3dd0314c0f7b2291e5b200ac8c7c3b92560405160405180910390a45050565b6000818152600360205260408120546001600160a01b03166110175760405162461bcd60e51b815260206004820152602c60248201527f4552433732313a206f70657261746f7220717565727920666f72206e6f6e657860448201526b34b9ba32b73a103a37b5b2b760a11b60648201526084016106d8565b600061102283610c7e565b9050806001600160a01b0316846001600160a01b0316148061105d5750836001600160a01b031661105284610663565b6001600160a01b0316145b8061108d57506001600160a01b0380821660009081526006602090815260408083209388168352929052205460ff165b949350505050565b826001600160a01b03166110a882610c7e565b6001600160a01b03161461110c5760405162461bcd60e51b815260206004820152602560248201527f4552433732313a207472616e736665722066726f6d20696e636f72726563742060448201526437bbb732b960d91b60648201526084016106d8565b6001600160a01b03821661116e5760405162461bcd60e51b8152602060048201526024808201527f4552433732313a207472616e7366657220746f20746865207a65726f206164646044820152637265737360e01b60648201526084016106d8565b6111798383836116d2565b611184600082610f30565b6001600160a01b03831660009081526004602052604081208054600192906111ad9084906126fa565b90915550506001600160a01b03821660009081526004602052604081208054600192906111db9084906126c3565b909155505060008181526003602052604080822080546001600160a01b0319166001600160a01b0386811691821790925591518493918716917fddf252ad1be2c89b69c2b068fc378daa952ba7f163c4a11628f55a4df523b3ef91a4505050565b6112468282610d7c565b610a145761125e816001600160a01b031660146116dd565b6112698360206116dd565b60405160200161127a92919061252a565b60408051601f198184030181529082905262461bcd60e51b82526106d8916004016125dc565b6112aa8282610d7c565b610a14576000828152602081815260408083206001600160a01b03851684529091529020805460ff191660011790556112e03390565b6001600160a01b0316816001600160a01b0316837f2f8788117e7eff1d82e926ec794901d17c78024a50270940304540a733656f0d60405160405180910390a45050565b61132e8282610d7c565b15610a14576000828152602081815260408083206001600160a01b0385168085529252808320805460ff1916905551339285917ff6391f5c32d9c69d2a47ea670b442974b53935d1edc7fd64eb21e047a839171b9190a45050565b60008151116113c85760405162461bcd60e51b815260206004820152600b60248201526a496e76616c69642055524960a81b60448201526064016106d8565b6001600160a01b0382166114105760405162461bcd60e51b815260206004820152600f60248201526e496e76616c6964204164647265737360881b60448201526064016106d8565b600e54600090156114cd576114236118c6565b60008181526012602052604090205490915060ff16156114855760405162461bcd60e51b815260206004820152601760248201527f43616e206e6f74206d696e742e2054727920616761696e00000000000000000060448201526064016106d8565b6000818152600b6020908152604090912083516114a4928501906120f0565b506000818152601260205260409020805460ff191660011790556114c88382611ba1565b611555565b506014805490819060006114e08361278f565b9190505550806011828154811061150757634e487b7160e01b600052603260045260246000fd5b6000918252602080832090910192909255828152600b8252604090208351611531928501906120f0565b506000818152601260205260409020805460ff191660011790556115558382611ba1565b6040516001600160a01b0384169082907fb9203d657e9c0ec8274c818292ab0f58b04e1970050716891770eb1bab5d655e90600090a3505050565b816001600160a01b0316836001600160a01b031614156115f25760405162461bcd60e51b815260206004820152601960248201527f4552433732313a20617070726f766520746f2063616c6c65720000000000000060448201526064016106d8565b6001600160a01b03838116600081815260066020908152604080832094871680845294825291829020805460ff191686151590811790915591519182527f17307eab39ab6107e8899845ad3d59bd9653f200f220920489ca2b5937696c31910160405180910390a3505050565b61166a848484611095565b61167684848484611bbb565b610df15760405162461bcd60e51b81526004016106d8906125ef565b60006001600160e01b031982166380ac58cd60e01b14806116c357506001600160e01b03198216635b5e139f60e01b145b806105cb57506105cb82611cc8565b61080e838383611cfd565b606060006116ec8360026126db565b6116f79060026126c3565b67ffffffffffffffff81111561171d57634e487b7160e01b600052604160045260246000fd5b6040519080825280601f01601f191660200182016040528015611747576020820181803683370190505b509050600360fc1b8160008151811061177057634e487b7160e01b600052603260045260246000fd5b60200101906001600160f81b031916908160001a905350600f60fb1b816001815181106117ad57634e487b7160e01b600052603260045260246000fd5b60200101906001600160f81b031916908160001a90535060006117d18460026126db565b6117dc9060016126c3565b90505b6001811115611870576f181899199a1a9b1b9c1cb0b131b232b360811b85600f166010811061181e57634e487b7160e01b600052603260045260246000fd5b1a60f81b82828151811061184257634e487b7160e01b600052603260045260246000fd5b60200101906001600160f81b031916908160001a90535060049490941c936118698161273d565b90506117df565b5083156118bf5760405162461bcd60e51b815260206004820181905260248201527f537472696e67733a20686578206c656e67746820696e73756666696369656e7460448201526064016106d8565b9392505050565b600080600f54116119295760405162461bcd60e51b815260206004820152602760248201527f43616e206e6f74206d696e742e20416c6c20746f6b656e7320616c7265616479604482015266081b5a5b9d195960ca1b60648201526084016106d8565b600f5460135460408051635ec01e4d60e01b81529051600093926001600160a01b031691635ec01e4d91600480830192602092919082900301818887803b15801561197357600080fd5b505af1158015611987573d6000803e3d6000fd5b505050506040513d601f19601f820116820180604052508101906119ab91906124e6565b6119b591906127aa565b90506000600f54826119c791906127aa565b90508015801590611a035750601181815481106119f457634e487b7160e01b600052603260045260246000fd5b90600052602060002001546000145b15611a37578060118281548110611a2a57634e487b7160e01b600052603260045260246000fd5b6000918252602090912001555b600060118281548110611a5a57634e487b7160e01b600052603260045260246000fd5b90600052602060002001549050600060118381548110611a8a57634e487b7160e01b600052603260045260246000fd5b9060005260206000200154905060006001600f54611aa891906126fa565b905060118181548110611acb57634e487b7160e01b600052603260045260246000fd5b906000526020600020015460001415611b0d578060118281548110611b0057634e487b7160e01b600052603260045260246000fd5b6000918252602090912001555b60118181548110611b2e57634e487b7160e01b600052603260045260246000fd5b906000526020600020015460118581548110611b5a57634e487b7160e01b600052603260045260246000fd5b90600052602060002001819055508160118281548110611b8a57634e487b7160e01b600052603260045260246000fd5b600091825260209091200155600f55509392505050565b610a14828260405180602001604052806000815250611db5565b60006001600160a01b0384163b15611cbd57604051630a85bd0160e11b81526001600160a01b0385169063150b7a0290611bff90339089908890889060040161259f565b602060405180830381600087803b158015611c1957600080fd5b505af1925050508015611c49575060408051601f3d908101601f19168201909252611c4691810190612497565b60015b611ca3573d808015611c77576040519150601f19603f3d011682016040523d82523d6000602084013e611c7c565b606091505b508051611c9b5760405162461bcd60e51b81526004016106d8906125ef565b805181602001fd5b6001600160e01b031916630a85bd0160e11b14905061108d565b506001949350505050565b60006001600160e01b03198216637965db0b60e01b14806105cb57506301ffc9a760e01b6001600160e01b03198316146105cb565b6001600160a01b038316611d5857611d5381600980546000838152600a60205260408120829055600182018355919091527f6e1540171b6c0c960b71a7020d9f60077f6af931a8bbf590da0223dacf75c7af0155565b611d7b565b816001600160a01b0316836001600160a01b031614611d7b57611d7b8382611de8565b6001600160a01b038216611d925761080e81611e85565b826001600160a01b0316826001600160a01b03161461080e5761080e8282611f5e565b611dbf8383611fa2565b611dcc6000848484611bbb565b61080e5760405162461bcd60e51b81526004016106d8906125ef565b60006001611df584610cf5565b611dff91906126fa565b600083815260086020526040902054909150808214611e52576001600160a01b03841660009081526007602090815260408083208584528252808320548484528184208190558352600890915290208190555b5060009182526008602090815260408084208490556001600160a01b039094168352600781528383209183525290812055565b600954600090611e97906001906126fa565b6000838152600a602052604081205460098054939450909284908110611ecd57634e487b7160e01b600052603260045260246000fd5b906000526020600020015490508060098381548110611efc57634e487b7160e01b600052603260045260246000fd5b6000918252602080832090910192909255828152600a90915260408082208490558582528120556009805480611f4257634e487b7160e01b600052603160045260246000fd5b6001900381819060005260206000200160009055905550505050565b6000611f6983610cf5565b6001600160a01b039093166000908152600760209081526040808320868452825280832085905593825260089052919091209190915550565b6001600160a01b038216611ff85760405162461bcd60e51b815260206004820181905260248201527f4552433732313a206d696e7420746f20746865207a65726f206164647265737360448201526064016106d8565b6000818152600360205260409020546001600160a01b03161561205d5760405162461bcd60e51b815260206004820152601c60248201527f4552433732313a20746f6b656e20616c7265616479206d696e7465640000000060448201526064016106d8565b612069600083836116d2565b6001600160a01b03821660009081526004602052604081208054600192906120929084906126c3565b909155505060008181526003602052604080822080546001600160a01b0319166001600160a01b03861690811790915590518392907fddf252ad1be2c89b69c2b068fc378daa952ba7f163c4a11628f55a4df523b3ef908290a45050565b8280546120fc90612754565b90600052602060002090601f01602090048101928261211e5760008555612164565b82601f1061213757805160ff1916838001178555612164565b82800160010185558215612164579182015b82811115612164578251825591602001919060010190612149565b50612170929150612174565b5090565b5b808211156121705760008155600101612175565b600067ffffffffffffffff8311156121a3576121a36127e0565b6121b6601f8401601f1916602001612692565b90508281528383830111156121ca57600080fd5b828260208301376000602084830101529392505050565b80356001600160a01b03811681146121f857600080fd5b919050565b600082601f83011261220d578081fd5b6118bf83833560208501612189565b60006020828403121561222d578081fd5b6118bf826121e1565b60008060408385031215612248578081fd5b612251836121e1565b915061225f602084016121e1565b90509250929050565b60008060006060848603121561227c578081fd5b612285846121e1565b9250612293602085016121e1565b9150604084013590509250925092565b600080600080608085870312156122b8578081fd5b6122c1856121e1565b93506122cf602086016121e1565b925060408501359150606085013567ffffffffffffffff8111156122f1578182fd5b8501601f81018713612301578182fd5b61231087823560208401612189565b91505092959194509250565b6000806040838503121561232e578182fd5b612337836121e1565b91506020830135801515811461234b578182fd5b809150509250929050565b60008060408385031215612368578182fd5b612371836121e1565b946020939093013593505050565b60006020808385031215612391578182fd5b823567ffffffffffffffff808211156123a8578384fd5b818501915085601f8301126123bb578384fd5b8135818111156123cd576123cd6127e0565b8060051b6123dc858201612692565b8281528581019085870183870188018b10156123f6578889fd5b8893505b848410156124335780358681111561241057898afd5b61241e8c8a838b01016121fd565b845250600193909301929187019187016123fa565b509998505050505050505050565b600060208284031215612452578081fd5b5035919050565b6000806040838503121561246b578182fd5b8235915061225f602084016121e1565b60006020828403121561248c578081fd5b81356118bf816127f6565b6000602082840312156124a8578081fd5b81516118bf816127f6565b6000602082840312156124c4578081fd5b813567ffffffffffffffff8111156124da578182fd5b61108d848285016121fd565b6000602082840312156124f7578081fd5b5051919050565b60008151808452612516816020860160208601612711565b601f01601f19169290920160200192915050565b7f416363657373436f6e74726f6c3a206163636f756e7420000000000000000000815260008351612562816017850160208801612711565b7001034b99036b4b9b9b4b733903937b6329607d1b6017918401918201528351612593816028840160208801612711565b01602801949350505050565b6001600160a01b03858116825284166020820152604081018390526080606082018190526000906125d2908301846124fe565b9695505050505050565b6020815260006118bf60208301846124fe565b60208082526032908201527f4552433732313a207472616e7366657220746f206e6f6e20455243373231526560408201527131b2b4bb32b91034b6b83632b6b2b73a32b960711b606082015260800190565b60208082526031908201527f4552433732313a207472616e736665722063616c6c6572206973206e6f74206f6040820152701ddb995c881b9bdc88185c1c1c9bdd9959607a1b606082015260800190565b604051601f8201601f1916810167ffffffffffffffff811182821017156126bb576126bb6127e0565b604052919050565b600082198211156126d6576126d66127ca565b500190565b60008160001904831182151516156126f5576126f56127ca565b500290565b60008282101561270c5761270c6127ca565b500390565b60005b8381101561272c578181015183820152602001612714565b83811115610df15750506000910152565b60008161274c5761274c6127ca565b506000190190565b600181811c9082168061276857607f821691505b6020821081141561278957634e487b7160e01b600052602260045260246000fd5b50919050565b60006000198214156127a3576127a36127ca565b5060010190565b6000826127c557634e487b7160e01b81526012600452602481fd5b500690565b634e487b7160e01b600052601160045260246000fd5b634e487b7160e01b600052604160045260246000fd5b6001600160e01b031981168114610aaf57600080fdfea2646970667358221220c58c6632a9626f0540250c4563547b6c01c41ff865755776e21966277ad0ecc164736f6c634300080400339f2df0fed2c77648de5860a4cc508cd0818c85b8b8a1ab4ceeef8d981c8956a6",
  "linkReferences": {},
  "deployedLinkReferences": {}
}