{
  "_format": "hh-sol-artifact-1",
  "contractName": "SilkRoad",
  "sourceName": "contracts/SilkRoad.sol",
  "abi": [
    {
      "inputs": [
        {
          "internalType": "string",
          "name": "name",
          "type": "string"
        },
        {
          "internalType": "address",
          "name": "_randomContract",
          "type": "address"
        }
      ],
      "stateMutability": "nonpayable",
      "type": "constructor"
    },
    {
      "anonymous": false,
      "inputs": [
        {
          "indexed": true,
          "internalType": "address",
          "name": "owner",
          "type": "address"
        },
        {
          "indexed": true,
          "internalType": "address",
          "name": "collection",
          "type": "address"
        }
      ],
      "name": "CollectionCreated",
      "type": "event"
    },
    {
      "anonymous": false,
      "inputs": [
        {
          "indexed": true,
          "internalType": "bytes32",
          "name": "role",
          "type": "bytes32"
        },
        {
          "indexed": true,
          "internalType": "bytes32",
          "name": "previousAdminRole",
          "type": "bytes32"
        },
        {
          "indexed": true,
          "internalType": "bytes32",
          "name": "newAdminRole",
          "type": "bytes32"
        }
      ],
      "name": "RoleAdminChanged",
      "type": "event"
    },
    {
      "anonymous": false,
      "inputs": [
        {
          "indexed": true,
          "internalType": "bytes32",
          "name": "role",
          "type": "bytes32"
        },
        {
          "indexed": true,
          "internalType": "address",
          "name": "account",
          "type": "address"
        },
        {
          "indexed": true,
          "internalType": "address",
          "name": "sender",
          "type": "address"
        }
      ],
      "name": "RoleGranted",
      "type": "event"
    },
    {
      "anonymous": false,
      "inputs": [
        {
          "indexed": true,
          "internalType": "bytes32",
          "name": "role",
          "type": "bytes32"
        },
        {
          "indexed": true,
          "internalType": "address",
          "name": "account",
          "type": "address"
        },
        {
          "indexed": true,
          "internalType": "address",
          "name": "sender",
          "type": "address"
        }
      ],
      "name": "RoleRevoked",
      "type": "event"
    },
    {
      "inputs": [],
      "name": "DEFAULT_ADMIN_ROLE",
      "outputs": [
        {
          "internalType": "bytes32",
          "name": "",
          "type": "bytes32"
        }
      ],
      "stateMutability": "view",
      "type": "function"
    },
    {
      "inputs": [],
      "name": "MINTER_ROLE",
      "outputs": [
        {
          "internalType": "bytes32",
          "name": "",
          "type": "bytes32"
        }
      ],
      "stateMutability": "view",
      "type": "function"
    },
    {
      "inputs": [
        {
          "internalType": "string",
          "name": "name",
          "type": "string"
        },
        {
          "internalType": "address",
          "name": "_randomContract",
          "type": "address"
        }
      ],
      "name": "addRandomContract",
      "outputs": [],
      "stateMutability": "nonpayable",
      "type": "function"
    },
    {
      "inputs": [
        {
          "internalType": "uint256",
          "name": "_maxTokens",
          "type": "uint256"
        },
        {
          "internalType": "uint256",
          "name": "_price",
          "type": "uint256"
        },
        {
          "internalType": "string",
          "name": "_id",
          "type": "string"
        },
        {
          "internalType": "string",
          "name": "_name",
          "type": "string"
        },
        {
          "internalType": "string",
          "name": "_symbol",
          "type": "string"
        },
        {
          "internalType": "string",
          "name": "_randomContractName",
          "type": "string"
        }
      ],
      "name": "createCollection",
      "outputs": [],
      "stateMutability": "nonpayable",
      "type": "function"
    },
    {
      "inputs": [],
      "name": "getRandomContractsLists",
      "outputs": [
        {
          "internalType": "string[]",
          "name": "",
          "type": "string[]"
        }
      ],
      "stateMutability": "view",
      "type": "function"
    },
    {
      "inputs": [
        {
          "internalType": "bytes32",
          "name": "role",
          "type": "bytes32"
        }
      ],
      "name": "getRoleAdmin",
      "outputs": [
        {
          "internalType": "bytes32",
          "name": "",
          "type": "bytes32"
        }
      ],
      "stateMutability": "view",
      "type": "function"
    },
    {
      "inputs": [
        {
          "internalType": "bytes32",
          "name": "role",
          "type": "bytes32"
        },
        {
          "internalType": "address",
          "name": "account",
          "type": "address"
        }
      ],
      "name": "grantRole",
      "outputs": [],
      "stateMutability": "nonpayable",
      "type": "function"
    },
    {
      "inputs": [
        {
          "internalType": "bytes32",
          "name": "role",
          "type": "bytes32"
        },
        {
          "internalType": "address",
          "name": "account",
          "type": "address"
        }
      ],
      "name": "hasRole",
      "outputs": [
        {
          "internalType": "bool",
          "name": "",
          "type": "bool"
        }
      ],
      "stateMutability": "view",
      "type": "function"
    },
    {
      "inputs": [
        {
          "internalType": "address",
          "name": "",
          "type": "address"
        },
        {
          "internalType": "uint256",
          "name": "",
          "type": "uint256"
        }
      ],
      "name": "nfts",
      "outputs": [
        {
          "internalType": "address",
          "name": "",
          "type": "address"
        }
      ],
      "stateMutability": "view",
      "type": "function"
    },
    {
      "inputs": [
        {
          "internalType": "string",
          "name": "",
          "type": "string"
        }
      ],
      "name": "randomContract",
      "outputs": [
        {
          "internalType": "address",
          "name": "",
          "type": "address"
        }
      ],
      "stateMutability": "view",
      "type": "function"
    },
    {
      "inputs": [
        {
          "internalType": "uint256",
          "name": "",
          "type": "uint256"
        }
      ],
      "name": "randomContracts",
      "outputs": [
        {
          "internalType": "string",
          "name": "",
          "type": "string"
        }
      ],
      "stateMutability": "view",
      "type": "function"
    },
    {
      "inputs": [
        {
          "internalType": "string",
          "name": "",
          "type": "string"
        }
      ],
      "name": "registry",
      "outputs": [
        {
          "internalType": "address",
          "name": "",
          "type": "address"
        }
      ],
      "stateMutability": "view",
      "type": "function"
    },
    {
      "inputs": [
        {
          "internalType": "bytes32",
          "name": "role",
          "type": "bytes32"
        },
        {
          "internalType": "address",
          "name": "account",
          "type": "address"
        }
      ],
      "name": "renounceRole",
      "outputs": [],
      "stateMutability": "nonpayable",
      "type": "function"
    },
    {
      "inputs": [
        {
          "internalType": "bytes32",
          "name": "role",
          "type": "bytes32"
        },
        {
          "internalType": "address",
          "name": "account",
          "type": "address"
        }
      ],
      "name": "revokeRole",
      "outputs": [],
      "stateMutability": "nonpayable",
      "type": "function"
    },
    {
      "inputs": [
        {
          "internalType": "bytes4",
          "name": "interfaceId",
          "type": "bytes4"
        }
      ],
      "name": "supportsInterface",
      "outputs": [
        {
          "internalType": "bool",
          "name": "",
          "type": "bool"
        }
      ],
      "stateMutability": "view",
      "type": "function"
    }
  ],
  "bytecode": "0x60806040523480156200001157600080fd5b506040516200429a3803806200429a833981016040819052620000349162000270565b62000041600033620000fd565b6200006d7f9f2df0fed2c77648de5860a4cc508cd0818c85b8b8a1ab4ceeef8d981c8956a633620000fd565b8060048360405162000080919062000339565b9081526040516020918190038201902080546001600160a01b0319166001600160a01b039390931692909217909155600580546001810182556000919091528351620000f4927f036b6384b5eca791c62761152d0c79bb0604c104a5fb6f4eb0703f3154bb3db090920191850190620001ad565b505050620003dd565b6200010982826200010d565b5050565b6000828152602081815260408083206001600160a01b038516845290915290205460ff1662000109576000828152602081815260408083206001600160a01b03851684529091529020805460ff19166001179055620001693390565b6001600160a01b0316816001600160a01b0316837f2f8788117e7eff1d82e926ec794901d17c78024a50270940304540a733656f0d60405160405180910390a45050565b828054620001bb906200038a565b90600052602060002090601f016020900481019282620001df57600085556200022a565b82601f10620001fa57805160ff19168380011785556200022a565b828001600101855582156200022a579182015b828111156200022a5782518255916020019190600101906200020d565b50620002389291506200023c565b5090565b5b808211156200023857600081556001016200023d565b80516001600160a01b03811681146200026b57600080fd5b919050565b6000806040838503121562000283578182fd5b82516001600160401b03808211156200029a578384fd5b818501915085601f830112620002ae578384fd5b815181811115620002c357620002c3620003c7565b604051601f8201601f19908116603f01168101908382118183101715620002ee57620002ee620003c7565b8160405282815288602084870101111562000307578687fd5b6200031a83602083016020880162000357565b8096505050505050620003306020840162000253565b90509250929050565b600082516200034d81846020870162000357565b9190910192915050565b60005b83811015620003745781810151838201526020016200035a565b8381111562000384576000848401525b50505050565b600181811c908216806200039f57607f821691505b60208210811415620003c157634e487b7160e01b600052602260045260246000fd5b50919050565b634e487b7160e01b600052604160045260246000fd5b613ead80620003ed6000396000f3fe60806040523480156200001157600080fd5b5060043610620001095760003560e01c80638c51a62311620000a3578063cad81db0116200006e578063cad81db0146200028d578063d539139314620002a4578063d547741f14620002cc578063ddc2143e14620002e357600080fd5b80638c51a62314620001ff57806391d14854146200023657806392a296c9146200024d578063a217fddf146200028457600080fd5b80632f2ff15d11620000e45780632f2ff15d146200018857806336568abe146200019f57806343af356b14620001b65780635240218514620001e657600080fd5b806301ffc9a7146200010e578063248a9ca3146200013a5780632e9e3aac146200016f575b600080fd5b620001256200011f36600462000dfc565b62000309565b60405190151581526020015b60405180910390f35b620001606200014b36600462000db5565b60009081526020819052604090206001015490565b60405190815260200162000131565b620001866200018036600462000e65565b62000341565b005b620001866200019936600462000dce565b620003cd565b62000186620001b036600462000dce565b620003f7565b620001cd620001c736600462000d89565b6200047d565b6040516001600160a01b03909116815260200162000131565b620001f0620004b6565b6040516200013191906200103a565b620001cd6200021036600462000e26565b80516020818301810180516004825292820191909301209152546001600160a01b031681565b620001256200024736600462000dce565b62000599565b620001cd6200025e36600462000e26565b80516020818301810180516002825292820191909301209152546001600160a01b031681565b62000160600081565b620001866200029e36600462000eae565b620005c2565b620001607f9f2df0fed2c77648de5860a4cc508cd0818c85b8b8a1ab4ceeef8d981c8956a681565b62000186620002dd36600462000dce565b620007ee565b620002fa620002f436600462000db5565b62000818565b6040516200013191906200109f565b60006001600160e01b03198216637965db0b60e01b14806200033b57506301ffc9a760e01b6001600160e01b03198316145b92915050565b8060048360405162000354919062000fa3565b9081526040516020918190038201902080546001600160a01b0319166001600160a01b039390931692909217909155600580546001810182556000919091528351620003c8927f036b6384b5eca791c62761152d0c79bb0604c104a5fb6f4eb0703f3154bb3db09092019185019062000c29565b505050565b600082815260208190526040902060010154620003eb8133620008cd565b620003c883836200093c565b6001600160a01b03811633146200046d5760405162461bcd60e51b815260206004820152602f60248201527f416363657373436f6e74726f6c3a2063616e206f6e6c792072656e6f756e636560448201526e103937b632b9903337b91039b2b63360891b60648201526084015b60405180910390fd5b620004798282620009c4565b5050565b600160205281600052604060002081815481106200049a57600080fd5b6000918252602090912001546001600160a01b03169150829050565b60606005805480602002602001604051908101604052809291908181526020016000905b8282101562000590578382906000526020600020018054620004fc906200119a565b80601f01602080910402602001604051908101604052809291908181526020018280546200052a906200119a565b80156200057b5780601f106200054f576101008083540402835291602001916200057b565b820191906000526020600020905b8154815290600101906020018083116200055d57829003601f168201915b505050505081526020019060010190620004da565b50505050905090565b6000918252602082815260408084206001600160a01b0393909316845291905290205460ff1690565b60006001600160a01b0316600285604051620005df919062000fa3565b908152604051908190036020019020546001600160a01b031614620006475760405162461bcd60e51b815260206004820152601f60248201527f436f6e7472616374207769746820494420616c72656164792065786973747300604482015260640162000464565b60405133906000906004906200065f90859062000fa3565b908152604051908190036020019020546001600160a01b03161415620006c85760405162461bcd60e51b815260206004820152601760248201527f556e6b6e6f776e2072616e646f6d20636f6e7472616374000000000000000000604482015260640162000464565b60008787868685600488604051620006e1919062000fa3565b908152604051908190036020018120546001600160a01b031690620007069062000cb8565b6200071796959493929190620010b4565b604051809103906000f08015801562000734573d6000803e3d6000fd5b506001600160a01b03838116600090815260016020818152604080842080549384018155845292200180546001600160a01b0319169284169290921790915551909150819081906002906200078b908a9062000fa3565b90815260405190819003602001812080546001600160a01b039384166001600160a01b0319909116179055828216918516907f5d0de243db1669e3a7056744cd715c625f0c1c348736c2c2d53d0ddebff1a6c790600090a3505050505050505050565b6000828152602081905260409020600101546200080c8133620008cd565b620003c88383620009c4565b600581815481106200082957600080fd5b90600052602060002001600091509050805462000846906200119a565b80601f016020809104026020016040519081016040528092919081815260200182805462000874906200119a565b8015620008c55780601f106200089957610100808354040283529160200191620008c5565b820191906000526020600020905b815481529060010190602001808311620008a757829003601f168201915b505050505081565b620008d9828262000599565b6200047957620008f4816001600160a01b0316601462000a2c565b6200090183602062000a2c565b6040516020016200091492919062000fc1565b60408051601f198184030181529082905262461bcd60e51b825262000464916004016200109f565b62000948828262000599565b62000479576000828152602081815260408083206001600160a01b03851684529091529020805460ff19166001179055620009803390565b6001600160a01b0316816001600160a01b0316837f2f8788117e7eff1d82e926ec794901d17c78024a50270940304540a733656f0d60405160405180910390a45050565b620009d0828262000599565b1562000479576000828152602081815260408083206001600160a01b0385168085529252808320805460ff1916905551339285917ff6391f5c32d9c69d2a47ea670b442974b53935d1edc7fd64eb21e047a839171b9190a45050565b6060600062000a3d8360026200112b565b62000a4a90600262001110565b67ffffffffffffffff81111562000a7157634e487b7160e01b600052604160045260246000fd5b6040519080825280601f01601f19166020018201604052801562000a9c576020820181803683370190505b509050600360fc1b8160008151811062000ac657634e487b7160e01b600052603260045260246000fd5b60200101906001600160f81b031916908160001a905350600f60fb1b8160018151811062000b0457634e487b7160e01b600052603260045260246000fd5b60200101906001600160f81b031916908160001a905350600062000b2a8460026200112b565b62000b3790600162001110565b90505b600181111562000bd1576f181899199a1a9b1b9c1cb0b131b232b360811b85600f166010811062000b7b57634e487b7160e01b600052603260045260246000fd5b1a60f81b82828151811062000ba057634e487b7160e01b600052603260045260246000fd5b60200101906001600160f81b031916908160001a90535060049490941c9362000bc98162001180565b905062000b3a565b50831562000c225760405162461bcd60e51b815260206004820181905260248201527f537472696e67733a20686578206c656e67746820696e73756666696369656e74604482015260640162000464565b9392505050565b82805462000c37906200119a565b90600052602060002090601f01602090048101928262000c5b576000855562000ca6565b82601f1062000c7657805160ff191683800117855562000ca6565b8280016001018555821562000ca6579182015b8281111562000ca657825182559160200191906001019062000c89565b5062000cb492915062000cc6565b5090565b612c74806200120483390190565b5b8082111562000cb4576000815560010162000cc7565b80356001600160a01b038116811462000cf557600080fd5b919050565b600082601f83011262000d0b578081fd5b813567ffffffffffffffff8082111562000d295762000d29620011ed565b604051601f8301601f19908116603f0116810190828211818310171562000d545762000d54620011ed565b8160405283815286602085880101111562000d6d578485fd5b8360208701602083013792830160200193909352509392505050565b6000806040838503121562000d9c578182fd5b62000da78362000cdd565b946020939093013593505050565b60006020828403121562000dc7578081fd5b5035919050565b6000806040838503121562000de1578182fd5b8235915062000df36020840162000cdd565b90509250929050565b60006020828403121562000e0e578081fd5b81356001600160e01b03198116811462000c22578182fd5b60006020828403121562000e38578081fd5b813567ffffffffffffffff81111562000e4f578182fd5b62000e5d8482850162000cfa565b949350505050565b6000806040838503121562000e78578182fd5b823567ffffffffffffffff81111562000e8f578283fd5b62000e9d8582860162000cfa565b92505062000df36020840162000cdd565b60008060008060008060c0878903121562000ec7578182fd5b8635955060208701359450604087013567ffffffffffffffff8082111562000eed578384fd5b62000efb8a838b0162000cfa565b9550606089013591508082111562000f11578384fd5b62000f1f8a838b0162000cfa565b9450608089013591508082111562000f35578384fd5b62000f438a838b0162000cfa565b935060a089013591508082111562000f59578283fd5b5062000f6889828a0162000cfa565b9150509295509295509295565b6000815180845262000f8f8160208601602086016200114d565b601f01601f19169290920160200192915050565b6000825162000fb78184602087016200114d565b9190910192915050565b7f416363657373436f6e74726f6c3a206163636f756e742000000000000000000081526000835162000ffb8160178501602088016200114d565b7001034b99036b4b9b9b4b733903937b6329607d1b60179184019182015283516200102e8160288401602088016200114d565b01602801949350505050565b6000602080830181845280855180835260408601915060408160051b8701019250838701855b828110156200109257603f198886030184526200107f85835162000f75565b9450928501929085019060010162001060565b5092979650505050505050565b60208152600062000c22602083018462000f75565b86815285602082015260c060408201526000620010d560c083018762000f75565b8281036060840152620010e9818762000f75565b6001600160a01b0395861660808501529390941660a0909201919091525095945050505050565b60008219821115620011265762001126620011d7565b500190565b6000816000190483118215151615620011485762001148620011d7565b500290565b60005b838110156200116a57818101518382015260200162001150565b838111156200117a576000848401525b50505050565b600081620011925762001192620011d7565b506000190190565b600181811c90821680620011af57607f821691505b60208210811415620011d157634e487b7160e01b600052602260045260246000fd5b50919050565b634e487b7160e01b600052601160045260246000fd5b634e487b7160e01b600052604160045260246000fdfe60806040523480156200001157600080fd5b5060405162002c7438038062002c748339810160408190526200003491620003e5565b8351849084906200004d90600190602085019062000232565b5080516200006390600290602084019062000232565b5050506001600160a01b0381166200007a57600080fd5b600e869055600d859055600c80546001600160a01b0319166001600160a01b03841617905585156200011857600e546001600160401b03811115620000cf57634e487b7160e01b600052604160045260246000fd5b604051908082528060200260200182016040528015620000f9578160200160208202803683370190505b5080516200011091601191602090910190620002c1565b50600e54600f555b601380546001600160a01b0319166001600160a01b0383161790556200014060008362000182565b6200015b60008051602062002c548339815191528362000182565b6200017660008051602062002c548339815191523362000182565b505050505050620004d7565b6200018e828262000192565b5050565b6000828152602081815260408083206001600160a01b038516845290915290205460ff166200018e576000828152602081815260408083206001600160a01b03851684529091529020805460ff19166001179055620001ee3390565b6001600160a01b0316816001600160a01b0316837f2f8788117e7eff1d82e926ec794901d17c78024a50270940304540a733656f0d60405160405180910390a45050565b828054620002409062000484565b90600052602060002090601f016020900481019282620002645760008555620002af565b82601f106200027f57805160ff1916838001178555620002af565b82800160010185558215620002af579182015b82811115620002af57825182559160200191906001019062000292565b50620002bd929150620002fe565b5090565b828054828255906000526020600020908101928215620002af5791602002820182811115620002af57825182559160200191906001019062000292565b5b80821115620002bd5760008155600101620002ff565b80516001600160a01b03811681146200032d57600080fd5b919050565b600082601f83011262000343578081fd5b81516001600160401b0380821115620003605762000360620004c1565b604051601f8301601f19908116603f011681019082821181831017156200038b576200038b620004c1565b81604052838152602092508683858801011115620003a7578485fd5b8491505b83821015620003ca5785820183015181830184015290820190620003ab565b83821115620003db57848385830101525b9695505050505050565b60008060008060008060c08789031215620003fe578182fd5b86516020880151604089015191975095506001600160401b038082111562000424578384fd5b620004328a838b0162000332565b9550606089015191508082111562000448578384fd5b506200045789828a0162000332565b935050620004686080880162000315565b91506200047860a0880162000315565b90509295509295509295565b600181811c908216806200049957607f821691505b60208210811415620004bb57634e487b7160e01b600052602260045260246000fd5b50919050565b634e487b7160e01b600052604160045260246000fd5b61276d80620004e76000396000f3fe6080604052600436106101d85760003560e01c80634f6ccce711610102578063a22cb46511610095578063d539139311610064578063d53913931461052d578063d547741f14610561578063e831574214610581578063e985e9c51461059757600080fd5b8063a22cb465146104b7578063a64ed8ba146104d7578063b88d4fde146104ed578063c87b56dd1461050d57600080fd5b80638467be0d116100d15780638467be0d1461045a57806391d148541461046d57806395d89b411461048d578063a217fddf146104a257600080fd5b80634f6ccce7146103da57806357f7789e146103fa5780636352211e1461041a57806370a082311461043a57600080fd5b806323b872dd1161017a57806336568abe1161014957806336568abe146103655780633ccfd60b1461038557806342842e0e1461039a5780634f64b2be146103ba57600080fd5b806323b872dd146102d5578063248a9ca3146102f55780632f2ff15d146103255780632f745c591461034557600080fd5b8063095ea7b3116101b6578063095ea7b31461026c5780630e89341c1461028e5780631249c58b146102ae57806318160ddd146102b657600080fd5b806301ffc9a7146101dd57806306fdde0314610212578063081812fc14610234575b600080fd5b3480156101e957600080fd5b506101fd6101f83660046123b2565b6105e0565b60405190151581526020015b60405180910390f35b34801561021e57600080fd5b506102276105f1565b6040516102099190612538565b34801561024057600080fd5b5061025461024f366004612378565b610683565b6040516001600160a01b039091168152602001610209565b34801561027857600080fd5b5061028c61028736600461234f565b61071d565b005b34801561029a57600080fd5b506102276102a9366004612378565b610833565b61028c6108cd565b3480156102c257600080fd5b506009545b604051908152602001610209565b3480156102e157600080fd5b5061028c6102f0366004612261565b61091a565b34801561030157600080fd5b506102c7610310366004612378565b60009081526020819052604090206001015490565b34801561033157600080fd5b5061028c610340366004612390565b61094b565b34801561035157600080fd5b506102c761036036600461234f565b610971565b34801561037157600080fd5b5061028c610380366004612390565b610a07565b34801561039157600080fd5b5061028c610a85565b3480156103a657600080fd5b5061028c6103b5366004612261565b610b1f565b3480156103c657600080fd5b506102c76103d5366004612378565b610b3a565b3480156103e657600080fd5b506102c76103f5366004612378565b610b5b565b34801561040657600080fd5b5061028c610415366004612402565b610bfc565b34801561042657600080fd5b50610254610435366004612378565b610c82565b34801561044657600080fd5b506102c7610455366004612215565b610cf9565b61028c610468366004612378565b610d80565b34801561047957600080fd5b506101fd610488366004612390565b610e44565b34801561049957600080fd5b50610227610e6d565b3480156104ae57600080fd5b506102c7600081565b3480156104c357600080fd5b5061028c6104d2366004612315565b610e7c565b3480156104e357600080fd5b506102c760105481565b3480156104f957600080fd5b5061028c61050836600461229c565b610e87565b34801561051957600080fd5b50610227610528366004612378565b610eb9565b34801561053957600080fd5b506102c77f9f2df0fed2c77648de5860a4cc508cd0818c85b8b8a1ab4ceeef8d981c8956a681565b34801561056d57600080fd5b5061028c61057c366004612390565b610f5b565b34801561058d57600080fd5b506102c7600e5481565b3480156105a357600080fd5b506101fd6105b236600461222f565b6001600160a01b03918216600090815260066020908152604080832093909416825291909152205460ff1690565b60006105eb82610f81565b92915050565b6060600180546106009061267f565b80601f016020809104026020016040519081016040528092919081815260200182805461062c9061267f565b80156106795780601f1061064e57610100808354040283529160200191610679565b820191906000526020600020905b81548152906001019060200180831161065c57829003601f168201915b5050505050905090565b6000818152600360205260408120546001600160a01b03166107015760405162461bcd60e51b815260206004820152602c60248201527f4552433732313a20617070726f76656420717565727920666f72206e6f6e657860448201526b34b9ba32b73a103a37b5b2b760a11b60648201526084015b60405180910390fd5b506000908152600560205260409020546001600160a01b031690565b600061072882610c82565b9050806001600160a01b0316836001600160a01b031614156107965760405162461bcd60e51b815260206004820152602160248201527f4552433732313a20617070726f76616c20746f2063757272656e74206f776e656044820152603960f91b60648201526084016106f8565b336001600160a01b03821614806107b257506107b281336105b2565b6108245760405162461bcd60e51b815260206004820152603860248201527f4552433732313a20617070726f76652063616c6c6572206973206e6f74206f7760448201527f6e6572206e6f7220617070726f76656420666f7220616c6c000000000000000060648201526084016106f8565b61082e8383610fa6565b505050565b600b602052600090815260409020805461084c9061267f565b80601f01602080910402602001604051908101604052809291908181526020018280546108789061267f565b80156108c55780601f1061089a576101008083540402835291602001916108c5565b820191906000526020600020905b8154815290600101906020018083116108a857829003601f168201915b505050505081565b600d5434101561090f5760405162461bcd60e51b815260206004820152600d60248201526c507269636520746f6f206c6f7760981b60448201526064016106f8565b61091833611014565b565b610924338261119f565b6109405760405162461bcd60e51b81526004016106f89061259d565b61082e838383611296565b600082815260208190526040902060010154610967813361143d565b61082e83836114a1565b600061097c83610cf9565b82106109de5760405162461bcd60e51b815260206004820152602b60248201527f455243373231456e756d657261626c653a206f776e657220696e646578206f7560448201526a74206f6620626f756e647360a81b60648201526084016106f8565b506001600160a01b03919091166000908152600760209081526040808320938352929052205490565b6001600160a01b0381163314610a775760405162461bcd60e51b815260206004820152602f60248201527f416363657373436f6e74726f6c3a2063616e206f6e6c792072656e6f756e636560448201526e103937b632b9903337b91039b2b63360891b60648201526084016106f8565b610a818282611525565b5050565b600c546040516000916001600160a01b03169047908381818185875af1925050503d8060008114610ad2576040519150601f19603f3d011682016040523d82523d6000602084013e610ad7565b606091505b5050905080610b1c5760405162461bcd60e51b815260206004820152601160248201527015da5d1a191c985dd85b0811985a5b1959607a1b60448201526064016106f8565b50565b61082e83838360405180602001604052806000815250610e87565b60118181548110610b4a57600080fd5b600091825260209091200154905081565b6000610b6660095490565b8210610bc95760405162461bcd60e51b815260206004820152602c60248201527f455243373231456e756d657261626c653a20676c6f62616c20696e646578206f60448201526b7574206f6620626f756e647360a01b60648201526084016106f8565b60098281548110610bea57634e487b7160e01b600052603260045260246000fd5b90600052602060002001549050919050565b6000815111610c3b5760405162461bcd60e51b815260206004820152600b60248201526a496e76616c69642055524960a81b60448201526064016106f8565b6000610c4683610c82565b9050336001600160a01b03821614610c5d57600080fd5b6000838152600b602090815260409091208351610c7c928501906120ea565b50505050565b6000818152600360205260408120546001600160a01b0316806105eb5760405162461bcd60e51b815260206004820152602960248201527f4552433732313a206f776e657220717565727920666f72206e6f6e657869737460448201526832b73a103a37b5b2b760b91b60648201526084016106f8565b60006001600160a01b038216610d645760405162461bcd60e51b815260206004820152602a60248201527f4552433732313a2062616c616e636520717565727920666f7220746865207a65604482015269726f206164647265737360b01b60648201526084016106f8565b506001600160a01b031660009081526004602052604090205490565b6014811115610dd15760405162461bcd60e51b815260206004820152601a60248201527f4e6f74206d6f7265207468616e20323020617420612074696d6500000000000060448201526064016106f8565b34600d5482610de09190612606565b1015610e1e5760405162461bcd60e51b815260206004820152600d60248201526c507269636520746f6f206c6f7760981b60448201526064016106f8565b60005b81811015610a8157610e3233611014565b80610e3c816126ba565b915050610e21565b6000918252602082815260408084206001600160a01b0393909316845291905290205460ff1690565b6060600280546106009061267f565b610a8133838361158a565b610e91338361119f565b610ead5760405162461bcd60e51b81526004016106f89061259d565b610c7c84848484611659565b6000818152600b60205260409020805460609190610ed69061267f565b80601f0160208091040260200160405190810160405280929190818152602001828054610f029061267f565b8015610f4f5780601f10610f2457610100808354040283529160200191610f4f565b820191906000526020600020905b815481529060010190602001808311610f3257829003601f168201915b50505050509050919050565b600082815260208190526040902060010154610f77813361143d565b61082e8383611525565b60006001600160e01b0319821663780e9d6360e01b14806105eb57506105eb8261168c565b600081815260056020526040902080546001600160a01b0319166001600160a01b0384169081179091558190610fdb82610c82565b6001600160a01b03167f8c5be1e5ebec7d5bd14f71427d1e84f3dd0314c0f7b2291e5b200ac8c7c3b92560405160405180910390a45050565b6001600160a01b03811661105c5760405162461bcd60e51b815260206004820152600f60248201526e496e76616c6964204164647265737360881b60448201526064016106f8565b600e54600090156110f95761106f6116cc565b60008181526012602052604090205490915060ff16156110d15760405162461bcd60e51b815260206004820152601760248201527f43616e206e6f74206d696e742e2054727920616761696e00000000000000000060448201526064016106f8565b6000818152601260205260409020805460ff191660011790556110f482826119a7565b611165565b5060148054908190600061110c836126ba565b9190505550806011828154811061113357634e487b7160e01b600052603260045260246000fd5b6000918252602080832090910192909255828152601290915260409020805460ff1916600117905561116582826119a7565b6040516001600160a01b0383169082907fb9203d657e9c0ec8274c818292ab0f58b04e1970050716891770eb1bab5d655e90600090a35050565b6000818152600360205260408120546001600160a01b03166112185760405162461bcd60e51b815260206004820152602c60248201527f4552433732313a206f70657261746f7220717565727920666f72206e6f6e657860448201526b34b9ba32b73a103a37b5b2b760a11b60648201526084016106f8565b600061122383610c82565b9050806001600160a01b0316846001600160a01b0316148061125e5750836001600160a01b031661125384610683565b6001600160a01b0316145b8061128e57506001600160a01b0380821660009081526006602090815260408083209388168352929052205460ff165b949350505050565b826001600160a01b03166112a982610c82565b6001600160a01b03161461130d5760405162461bcd60e51b815260206004820152602560248201527f4552433732313a207472616e736665722066726f6d20696e636f72726563742060448201526437bbb732b960d91b60648201526084016106f8565b6001600160a01b03821661136f5760405162461bcd60e51b8152602060048201526024808201527f4552433732313a207472616e7366657220746f20746865207a65726f206164646044820152637265737360e01b60648201526084016106f8565b61137a8383836119c1565b611385600082610fa6565b6001600160a01b03831660009081526004602052604081208054600192906113ae908490612625565b90915550506001600160a01b03821660009081526004602052604081208054600192906113dc9084906125ee565b909155505060008181526003602052604080822080546001600160a01b0319166001600160a01b0386811691821790925591518493918716917fddf252ad1be2c89b69c2b068fc378daa952ba7f163c4a11628f55a4df523b3ef91a4505050565b6114478282610e44565b610a815761145f816001600160a01b031660146119cc565b61146a8360206119cc565b60405160200161147b929190612486565b60408051601f198184030181529082905262461bcd60e51b82526106f891600401612538565b6114ab8282610e44565b610a81576000828152602081815260408083206001600160a01b03851684529091529020805460ff191660011790556114e13390565b6001600160a01b0316816001600160a01b0316837f2f8788117e7eff1d82e926ec794901d17c78024a50270940304540a733656f0d60405160405180910390a45050565b61152f8282610e44565b15610a81576000828152602081815260408083206001600160a01b0385168085529252808320805460ff1916905551339285917ff6391f5c32d9c69d2a47ea670b442974b53935d1edc7fd64eb21e047a839171b9190a45050565b816001600160a01b0316836001600160a01b031614156115ec5760405162461bcd60e51b815260206004820152601960248201527f4552433732313a20617070726f766520746f2063616c6c65720000000000000060448201526064016106f8565b6001600160a01b03838116600081815260066020908152604080832094871680845294825291829020805460ff191686151590811790915591519182527f17307eab39ab6107e8899845ad3d59bd9653f200f220920489ca2b5937696c31910160405180910390a3505050565b611664848484611296565b61167084848484611bb5565b610c7c5760405162461bcd60e51b81526004016106f89061254b565b60006001600160e01b031982166380ac58cd60e01b14806116bd57506001600160e01b03198216635b5e139f60e01b145b806105eb57506105eb82611cc2565b600080600f541161172f5760405162461bcd60e51b815260206004820152602760248201527f43616e206e6f74206d696e742e20416c6c20746f6b656e7320616c7265616479604482015266081b5a5b9d195960ca1b60648201526084016106f8565b600f5460135460408051635ec01e4d60e01b81529051600093926001600160a01b031691635ec01e4d91600480830192602092919082900301818887803b15801561177957600080fd5b505af115801561178d573d6000803e3d6000fd5b505050506040513d601f19601f820116820180604052508101906117b191906123ea565b6117bb91906126d5565b90506000600f54826117cd91906126d5565b905080158015906118095750601181815481106117fa57634e487b7160e01b600052603260045260246000fd5b90600052602060002001546000145b1561183d57806011828154811061183057634e487b7160e01b600052603260045260246000fd5b6000918252602090912001555b60006011828154811061186057634e487b7160e01b600052603260045260246000fd5b9060005260206000200154905060006011838154811061189057634e487b7160e01b600052603260045260246000fd5b9060005260206000200154905060006001600f546118ae9190612625565b9050601181815481106118d157634e487b7160e01b600052603260045260246000fd5b90600052602060002001546000141561191357806011828154811061190657634e487b7160e01b600052603260045260246000fd5b6000918252602090912001555b6011818154811061193457634e487b7160e01b600052603260045260246000fd5b90600052602060002001546011858154811061196057634e487b7160e01b600052603260045260246000fd5b9060005260206000200181905550816011828154811061199057634e487b7160e01b600052603260045260246000fd5b600091825260209091200155600f55509392505050565b610a81828260405180602001604052806000815250611cf7565b61082e838383611d2a565b606060006119db836002612606565b6119e69060026125ee565b67ffffffffffffffff811115611a0c57634e487b7160e01b600052604160045260246000fd5b6040519080825280601f01601f191660200182016040528015611a36576020820181803683370190505b509050600360fc1b81600081518110611a5f57634e487b7160e01b600052603260045260246000fd5b60200101906001600160f81b031916908160001a905350600f60fb1b81600181518110611a9c57634e487b7160e01b600052603260045260246000fd5b60200101906001600160f81b031916908160001a9053506000611ac0846002612606565b611acb9060016125ee565b90505b6001811115611b5f576f181899199a1a9b1b9c1cb0b131b232b360811b85600f1660108110611b0d57634e487b7160e01b600052603260045260246000fd5b1a60f81b828281518110611b3157634e487b7160e01b600052603260045260246000fd5b60200101906001600160f81b031916908160001a90535060049490941c93611b5881612668565b9050611ace565b508315611bae5760405162461bcd60e51b815260206004820181905260248201527f537472696e67733a20686578206c656e67746820696e73756666696369656e7460448201526064016106f8565b9392505050565b60006001600160a01b0384163b15611cb757604051630a85bd0160e11b81526001600160a01b0385169063150b7a0290611bf99033908990889088906004016124fb565b602060405180830381600087803b158015611c1357600080fd5b505af1925050508015611c43575060408051601f3d908101601f19168201909252611c40918101906123ce565b60015b611c9d573d808015611c71576040519150601f19603f3d011682016040523d82523d6000602084013e611c76565b606091505b508051611c955760405162461bcd60e51b81526004016106f89061254b565b805181602001fd5b6001600160e01b031916630a85bd0160e11b14905061128e565b506001949350505050565b60006001600160e01b03198216637965db0b60e01b14806105eb57506301ffc9a760e01b6001600160e01b03198316146105eb565b611d018383611de2565b611d0e6000848484611bb5565b61082e5760405162461bcd60e51b81526004016106f89061254b565b6001600160a01b038316611d8557611d8081600980546000838152600a60205260408120829055600182018355919091527f6e1540171b6c0c960b71a7020d9f60077f6af931a8bbf590da0223dacf75c7af0155565b611da8565b816001600160a01b0316836001600160a01b031614611da857611da88382611f30565b6001600160a01b038216611dbf5761082e81611fcd565b826001600160a01b0316826001600160a01b03161461082e5761082e82826120a6565b6001600160a01b038216611e385760405162461bcd60e51b815260206004820181905260248201527f4552433732313a206d696e7420746f20746865207a65726f206164647265737360448201526064016106f8565b6000818152600360205260409020546001600160a01b031615611e9d5760405162461bcd60e51b815260206004820152601c60248201527f4552433732313a20746f6b656e20616c7265616479206d696e7465640000000060448201526064016106f8565b611ea9600083836119c1565b6001600160a01b0382166000908152600460205260408120805460019290611ed29084906125ee565b909155505060008181526003602052604080822080546001600160a01b0319166001600160a01b03861690811790915590518392907fddf252ad1be2c89b69c2b068fc378daa952ba7f163c4a11628f55a4df523b3ef908290a45050565b60006001611f3d84610cf9565b611f479190612625565b600083815260086020526040902054909150808214611f9a576001600160a01b03841660009081526007602090815260408083208584528252808320548484528184208190558352600890915290208190555b5060009182526008602090815260408084208490556001600160a01b039094168352600781528383209183525290812055565b600954600090611fdf90600190612625565b6000838152600a60205260408120546009805493945090928490811061201557634e487b7160e01b600052603260045260246000fd5b90600052602060002001549050806009838154811061204457634e487b7160e01b600052603260045260246000fd5b6000918252602080832090910192909255828152600a9091526040808220849055858252812055600980548061208a57634e487b7160e01b600052603160045260246000fd5b6001900381819060005260206000200160009055905550505050565b60006120b183610cf9565b6001600160a01b039093166000908152600760209081526040808320868452825280832085905593825260089052919091209190915550565b8280546120f69061267f565b90600052602060002090601f016020900481019282612118576000855561215e565b82601f1061213157805160ff191683800117855561215e565b8280016001018555821561215e579182015b8281111561215e578251825591602001919060010190612143565b5061216a92915061216e565b5090565b5b8082111561216a576000815560010161216f565b600067ffffffffffffffff8084111561219e5761219e61270b565b604051601f8501601f19908116603f011681019082821181831017156121c6576121c661270b565b816040528093508581528686860111156121df57600080fd5b858560208301376000602087830101525050509392505050565b80356001600160a01b038116811461221057600080fd5b919050565b600060208284031215612226578081fd5b611bae826121f9565b60008060408385031215612241578081fd5b61224a836121f9565b9150612258602084016121f9565b90509250929050565b600080600060608486031215612275578081fd5b61227e846121f9565b925061228c602085016121f9565b9150604084013590509250925092565b600080600080608085870312156122b1578081fd5b6122ba856121f9565b93506122c8602086016121f9565b925060408501359150606085013567ffffffffffffffff8111156122ea578182fd5b8501601f810187136122fa578182fd5b61230987823560208401612183565b91505092959194509250565b60008060408385031215612327578182fd5b612330836121f9565b915060208301358015158114612344578182fd5b809150509250929050565b60008060408385031215612361578182fd5b61236a836121f9565b946020939093013593505050565b600060208284031215612389578081fd5b5035919050565b600080604083850312156123a2578182fd5b82359150612258602084016121f9565b6000602082840312156123c3578081fd5b8135611bae81612721565b6000602082840312156123df578081fd5b8151611bae81612721565b6000602082840312156123fb578081fd5b5051919050565b60008060408385031215612414578182fd5b82359150602083013567ffffffffffffffff811115612431578182fd5b8301601f81018513612441578182fd5b61245085823560208401612183565b9150509250929050565b6000815180845261247281602086016020860161263c565b601f01601f19169290920160200192915050565b7f416363657373436f6e74726f6c3a206163636f756e74200000000000000000008152600083516124be81601785016020880161263c565b7001034b99036b4b9b9b4b733903937b6329607d1b60179184019182015283516124ef81602884016020880161263c565b01602801949350505050565b6001600160a01b038581168252841660208201526040810183905260806060820181905260009061252e9083018461245a565b9695505050505050565b602081526000611bae602083018461245a565b60208082526032908201527f4552433732313a207472616e7366657220746f206e6f6e20455243373231526560408201527131b2b4bb32b91034b6b83632b6b2b73a32b960711b606082015260800190565b60208082526031908201527f4552433732313a207472616e736665722063616c6c6572206973206e6f74206f6040820152701ddb995c881b9bdc88185c1c1c9bdd9959607a1b606082015260800190565b60008219821115612601576126016126f5565b500190565b6000816000190483118215151615612620576126206126f5565b500290565b600082821015612637576126376126f5565b500390565b60005b8381101561265757818101518382015260200161263f565b83811115610c7c5750506000910152565b600081612677576126776126f5565b506000190190565b600181811c9082168061269357607f821691505b602082108114156126b457634e487b7160e01b600052602260045260246000fd5b50919050565b60006000198214156126ce576126ce6126f5565b5060010190565b6000826126f057634e487b7160e01b81526012600452602481fd5b500690565b634e487b7160e01b600052601160045260246000fd5b634e487b7160e01b600052604160045260246000fd5b6001600160e01b031981168114610b1c57600080fdfea2646970667358221220c3a4c82e27b98759503a4dec8d20a654a34138723c1664b587295767563ad88164736f6c634300080400339f2df0fed2c77648de5860a4cc508cd0818c85b8b8a1ab4ceeef8d981c8956a6a2646970667358221220657b8cf2cd003bb9922ff9344f810f2a56cdcd766efb6720e7840a4fc5b41c8864736f6c63430008040033",
  "linkReferences": {},
  "deployedLinkReferences": {}
}